:020000040800F2
:10000000000700203104000833040008330400080E
:1000100033040008330400083304000833040008E4
:10002000330400083304000833040008BD580008F6
:1000300033040008330400083304000833040008C4
:1000400033040008330400083304000833040008B4
:1000500033040008330400081D70000849700008CC
:1000600075700008A1700008CD700008CD3E000832
:10007000F53E0008213F00084D3F0008793F000889
:10008000A13F0008CD3F00083304000833040008F6
:10009000330400083304000833040008F970000832
:1000A0003304000833040008330400083304000854
:1000B0003304000833040008330400083304000844
:1000C0003304000833040008330400083304000834
:1000D0003304000833040008330400083304000824
:1000E0005D7100083304000833040008330400087D
:1000F000330400083304000833040008F93F000803
:100100003304000833040008D171000833040008E8
:1001100033040008330400083304000833040008E3
:10012000254000084D40000879400008A54000081F
:10013000D1400008330400083304000833040008E9
:1001400033040008330400083304000833040008B3
:10015000F940000825410008514100083304000817
:100160003304000833040008330400083304000893
:1001700033040008A96400083304000833040008AD
:100180003304000833040008330400083304000873
:100190003304000833040008330400083304000863
:1001A0003304000833040008330400083304000853
:1001B0003304000833040008330400083304000843
:1001C0003304000833040008330400083304000833
:1001D0003304000895640008330400083304000861
:1001E0003304000833040008330400083304000813
:1001F0003304000833040008330400083304000803
:1002000033040008330400083304000833040008F2
:1002100033040008330400083304000833040008E2
:1002200033040008330400083304000833040008D2
:1002300033040008330400083304000833040008C2
:1002400033040008330400083304000833040008B2
:1002500033040008330400083304000833040008A2
:100260003304000833040008330400083304000892
:100270003304000833040008330400083304000882
:100280003304000833040008330400083304000872
:100290003304000833040008330400083304000862
:1002A0003304000833040008330400083304000852
:1002B0003304000833040008330400083304000842
:1002C0003304000833040008330400083304000832
:1002D0003304000833040008330400083304000822
:1002E00089050008000000004ECF4EA5A6B6F729EC
:1002F0005896DBA5B8CECFFC8C0772719EFAB24D32
:100300004227090759712B64034AA19F695D84F252
:100310005FC8DD56AC48214982B8C4A2F088536753
:100320008D159175B481B45CCF332D752821A82229
:10033000B27347917F7A17D03EFC84A9A4766B7381
:1003400058E33E8DE330D37E8363D3A0A8564A00A2
:10035000B7980E3DE8B31EECF8602294242B0ECC27
:100360000967086C9FC2A51CF614F8085AE2F93216
:10037000000000000000000000000000000000007D
:10038000000000000000000000000000000000006D
:10039000000000000000000000000000000000005D
:1003A000000000000000000000000000000000004D
:1003B000000000000000000000000000000000003D
:1003C000000000000000000000000000000000002D
:1003D000000000000000000000000000000000001D
:1003E000000000000000000000000000000000000D
:1003F00000000000000000000000000000000000FD
:1004000000000000000000000000000000000000EC
:1004100000000000000000000000000000000000DC
:1004200000000000000000000000000000000000CC
:1004300002E000F000F8FEE772B6374880F3088863
:10044000364880F3098836483649086040F2000093
:10045000CCF200004EF63471CEF200010860BFF31A
:100460004F8FBFF36F8F40F20000C0F2F0004EF6E6
:100470008851CEF200010860BFF34F8FBFF36F8F3A
:100480004FF00000E1EE100A4EF63C71CEF2000192
:100490000860062080F31488BFF36F8F05F070FAB0
:1004A00006F076FB4FF055301F491B4A91423CBF86
:1004B00041F8040BFAE71D49184A91423CBF41F844
:1004C000040BFAE71A491B4A1B4B9A423EBF51F8EC
:1004D000040B42F8040BF8E700201849184A91422F
:1004E0003CBF41F8040BFAE705F088FA06F0D4FBAC
:1004F000144C154DAC4203DA54F8041B8847F9E755
:1005000000F048F8114C124DAC4203DA54F8041BC9
:100510008847F9E705F070BA0007002000230020A3
:100520000000000808ED00E00001002000070020A6
:10053000C07E000800230020C0230020C02300202C
:10054000E4450020E0020008E4020008E40200089C
:10055000E40200082DE9F04F2DED108AC1F80CD00F
:10056000D0F80CD0BDEC108ABDE8F08F002383F3E7
:1005700011882846A047002004F04EFCFEE704F056
:10058000D9FB00DFFEE70000014B00221A7570471F
:100590000023002038B500F0B9FC00F03FFE05F064
:1005A00033F9054605F080F90446D8B9304B9D4231
:1005B0001AD001339D4241F2883504BF0124002541
:1005C00000F006FF2B4B186112284AD8DFE800F034
:1005D0000E4949494949494949492C373A4049490D
:1005E0003D4346000025EBE70546E9E76022224946
:1005F000224806F075FE05F01FF903F0FBF928B15B
:100600001E491F4803F0F2F903F0F6F9002005F047
:1006100005F90CB100F0ACF800F0D4FD284600F06C
:1006200073F900F0A5F8F9E760221649134806F0BF
:1006300057FE0025032000F085F82C46DBE76022FA
:100640001149F3E760221149F0E760221049EDE714
:1006500060221049EAE760220F49E7E760220F496C
:10066000E4E703460E4A6021044803F0C7F9E0E7D7
:10067000010007B0002300200873000814230020A5
:10068000507400082C730008537300087873000836
:1006900098730008BC730008DB730008007400083E
:1006A0002C74000808B500F003FCA0F120035842A8
:1006B000584108BD07B541F21203022101A8ADF867
:1006C000043000F013FC03B05DF804FB38B53023B0
:1006D00083F31188174803680BB104F069FC002309
:1006E000154A4FF47A71134804F058FC002383F341
:1006F0001188124C236813B12368013B236063689F
:1007000013B16368013B63600D4D2B7833B96368A7
:100710007BB9022000F0C0FC322363602B78032BEE
:1007200007D163682BB9022000F0B6FC4FF47A734E
:10073000636038BDC0230020CD060008E0240020FF
:10074000D8230020084B187003280CD8DFE800F0ED
:1007500008050208022000F097BC022000F08ABCC5
:10076000024B00225A607047D8230020E02400206A
:10077000F8B500F02DFE58B1584B032258491A70B5
:100780000022584B58485A60BDE8F84003F02EB993
:100790005649554803F02AF9554B564A1C461968E4
:1007A000013100F0998004339342F8D16268524BD2
:1007B0009A4240F29180514B9B6803F1006303F52C
:1007C00000339A4280F08880002000F0C5FB0220B0
:1007D000FFF7B8FF4A4B0021D3F8E820C3F8E81030
:1007E000D3F81021C3F81011D3F81021D3F8EC205E
:1007F000C3F8EC10D3F81421C3F81411D3F8142162
:10080000D3F8F020C3F8F010D3F81821C3F818116A
:10081000D3F81821D3F8802042F00062C3F880207A
:10082000D3F8802022F00062C3F88020D3F8802023
:10083000D3F8802042F00072C3F88020D3F88020E3
:1008400022F00072C3F88020D3F8803072B64FF0E7
:10085000E023C3F8084DD4E90004BFF34F8FBFF382
:100860006F8F284AC2F88410BFF34F8F536923F467
:1008700080335361BFF34F8FD2F8803043F6E07678
:10088000C3F3C905C3F34E335B0103EA060C2946E3
:100890004CEA81770139C2F87472F9D2203B13F126
:1008A000200FF2D1BFF34F8FBFF36F8FBFF34F8F86
:1008B000BFF36F8F536923F4003353610023C2F8F1
:1008C0005032BFF34F8FBFF36F8F302383F3118804
:1008D000854680F308882047F8BD00BFD823002054
:1008E00060740008E024002050740008717400084F
:1008F0000000020820000208FFFF0108002300207A
:100900000044025800ED00E02DE9F04F93B0A14BF8
:100910002022FF2100900AA89D6800F0FDFB9E4A5E
:100920001378A3B901219D4811700360302383F32C
:10093000118803680BB104F03BFB0023984A4FF485
:100940007A71964804F02AFB002383F31188009BF8
:1009500013B1944B009A1A60934A1378032B03D077
:10096000002313708F4A53604FF0000A009CD34657
:100970005646D146012000F087FB24B1894B1B6805
:10098000002B00F03682002000F092FA0390039BC7
:10099000002BF2DB012000F06DFB039B213B1F2BA2
:1009A000E8D801A252F823F0290A0008510A0008E9
:1009B000030B00087509000875090008750900088F
:1009C000C10B0008670D0008810C0008E30C00084B
:1009D0000B0D0008310D000875090008430D0008D3
:1009E00075090008B50D0008CB0A00087509000854
:1009F000F90D0008350A0008CB0A0008750900083F
:100A0000E30C00087509000875090008750900085D
:100A100075090008750900087509000875090008BE
:100A200075090008030B00080220FFF73BFE0028B1
:100A300040F00982009B022105A8BAF1000F08BF0F
:100A40001C4641F21233ADF8143000F04FFA91E732
:100A50004FF47A7000F02CFA071EEBDB0220FFF750
:100A600021FE0028E6D0013F072F00F2EE81DFE8EB
:100A700007F0040B0E1114373A3D0523042105A895
:100A8000059300F033FA17E004214248F9E7042106
:100A90004648F6E704214648F3E74FF01C08404675
:100AA00008F1040800F05AFA0421059005A800F0A6
:100AB0001DFAB8F12C0FF2D101204FF0000900FA15
:100AC00007F747EA0B0B5FFA8BFB00F071FB26B1CF
:100AD0000BF00B030B2B08BF0024FFF7EBFD49E7DE
:100AE00004213448CDE704213348CAE7334800F0F5
:100AF0000BFB0421059005A800F0F8F905992F4893
:100B0000BFE7002E96D00BF00B030B2B92D10220E7
:100B1000FFF7C8FD074600288CD00120002600F012
:100B20001BFA0220FFF70EFE1FFA86F8404600F07F
:100B300023FA0446B0B1039940460136A1F14002C0
:100B40005142514100F028FA0028EDD1BA4604463E
:100B500041F21213022105A83E46ADF8143000F010
:100B6000C5F907E725460120FFF7ECFD094B9B6817
:100B7000AB4207D9284600F0F1F9013040F0688116
:100B80000435F3E70025084BBA463E461D70054B79
:100B90005D609AE700230020DC240020C0230020B1
:100BA000CD060008E0240020D823002004230020E4
:100BB000082300200C2300201023002014230020F1
:100BC000002E3FF437AF0BF00B030B2B7FF432AF4B
:100BD0000220FFF7B7FD322000F06AF9B0F10008FB
:100BE000FFF628AF18F003077FF424AF9A4A08EB0A
:100BF0000503926893423FF61DAFB8F5807F3FF73B
:100C000019AF964BB84501930EDD4FF47A7000F0A2
:100C10004FF90390039A002AFFF60CAF039A0137AD
:100C2000019B03F8012BEDE7C820FFF73BFD0746CA
:100C300000283FF4FFAE1F2D11D8C5F120020AABEA
:100C400025F0030085494245184428BF42460192D9
:100C500000F03CFA019AFF21804800F05DFA4FEA6B
:100C6000A803C8F387027D492846019300F05CFA87
:100C7000064600283FF46CAF019B05EB830524E793
:100C80000220FFF70FFD00283FF4D4AE00F0A2F9D8
:100C900000283FF4CFAE0027B8466F4B9B68BB429D
:100CA00018D91F2F11D80A9B01330ED027F0030348
:100CB00012AA134453F8203C05934046042205A988
:100CC000043700F00BFB8046E7E7384600F046F9B2
:100CD0000590F2E7CDF81480042105A800F006F98C
:100CE000F3E60023642104A8049300F0F5F800283B
:100CF0007FF4A0AE0220FFF7D5FC00283FF49AAEA7
:100D0000049800F05DF90590E6E70023642104A84B
:100D1000049300F0E1F800287FF48CAE0220FFF786
:100D2000C1FC00283FF486AE049800F04BF9EAE7D6
:100D30000220FFF7B7FC00283FF47CAE00F05AF920
:100D4000E1E70220FFF7AEFC00283FF473AE05A9EF
:100D5000142000F055F907460421049004A800F07F
:100D6000C5F83946B9E7322000F0A2F8071EFFF6B1
:100D700061AEBB077FF45EAE374A07EB09039268AA
:100D800093423FF657AE0220FFF78CFC00283FF459
:100D900051AE27F003074F44B9453FF496AE48469D
:100DA00009F1040900F0DAF80421059005A800F023
:100DB0009DF8F1E74FF47A70FFF774FC00283FF4D8
:100DC00039AE00F007F9002844D00A9B01330BD05C
:100DD00008220AA9002000F0A7F900283AD0202212
:100DE000FF210AA800F098F9FFF764FC1C4804F002
:100DF00019F813B0BDE8F08F002E3FF41BAE0BF0D6
:100E00000B030B2B7FF416AE0023642105A805937A
:100E100000F062F8074600287FF40CAE0220FFF7CE
:100E200041FC804600283FF405AEFFF743FC41F249
:100E3000883003F0F7FF059800F0EEF946463C468F
:100E400000F0B6F996E506463FE64FF00009F1E5F9
:100E5000BA467DE637467BE600230020DC230020EF
:100E6000A08601000F4B70B51B780C460133DBB236
:100E7000012B11D80C4D4FF47A732968A2FB033271
:100E800022460E6A01462846B047844204D1074BE9
:100E9000002201201A7070BD4FF4FA7003F0C2FFF7
:100EA0000020F8E7742300201028002014250020DB
:100EB000002307B5024601210DF107008DF8073028
:100EC000FFF7D0FF20B19DF8070003B05DF804FBE9
:100ED0004FF0FF30F9E700000A46042108B5FFF79C
:100EE000C1FF80F00100C0B2404208BD30B4054CE3
:100EF0000A46014623682046DD69034BAC4630BCF8
:100F0000604700BF10280020A086010070B5104C7B
:100F10000025104E04F0A2FA208030682388834216
:100F20000CD800252088013804F094FA2388054461
:100F3000013BB5F5802F2380F4D370BD04F08AFA0D
:100F4000336805440133B5F5003F3360E5D3E8E786
:100F500016250020E824002004F04EBB00F10060BC
:100F600000F500300068704700F10060920000F565
:100F7000003004F0CFBA0000054B1A68054B1B88FF
:100F80009B1A834202D9104404F064BA00207047CF
:100F9000E82400201625002038B50446074D29B165
:100FA00028682044BDE8384004F06CBA2868204422
:100FB00004F056FA0028F3D038BD00BFE824002022
:100FC0000020704700F1FF5000F58F10D0F80008A6
:100FD00070470000064991F8243033B100230822FD
:100FE000086A81F82430FFF7BFBF0120704700BFB7
:100FF000EC240020014B1868704700BF0010005C13
:10100000194B01380322084470B51D68174BC5F30E
:101010000B042D0C1E88A6420BD15C680A46013CCD
:10102000824213460FD214F9016F4EB102F8016BE0
:10103000F6E7013A03F10803ECD181420B4602D2F4
:101040002C2203F8012B0424094A1688AE4204D14D
:10105000984284BF967803F8016B013C02F10402C8
:10106000F3D1581A70BD00BF0010005C7823002037
:10107000B0740008022803D1024B4FF480329A6109
:10108000704700BF00100258022802D1014B012214
:101090009A61704700100258022804D1024A53692D
:1010A00083F00103536170470010025870B5044685
:1010B0004FF47A764CB1412C254628BF412506FBDA
:1010C00005F0641B03F0AEFEF4E770BD002310B51D
:1010D000934203D0CC5CC4540133F9E710BD000047
:1010E000013810B510F9013F3BB191F900409C4225
:1010F00003D11AB10131013AF4E71AB191F9002094
:10110000981A10BD1046FCE703460246D01A12F9A1
:10111000011B0029FAD1704702440346934202D0D2
:1011200003F8011BFAE770472DE9F8431F4D1446F9
:101130000746884695F8242052BBDFF870909CB390
:1011400095F824302BB92022FF2148462F62FFF763
:10115000E3FF95F824004146C0F1080205EB80004A
:10116000A24228BF2246D6B29200FFF7AFFF95F801
:101170002430A41B17441E449044E4B2F6B2082E57
:1011800085F82460DBD1FFF725FF0028D7D108E0E0
:101190002B6A03EB82038342CFD0FFF71BFF0028AB
:1011A000CBD10020BDE8F8830120FBE7EC24002030
:1011B000024B1A78024B1A70704700BF14250020AA
:1011C0007423002010B5114C114803F05BF921463F
:1011D0000F4803F083F924684FF47A70D4F8902014
:1011E000D2F8043843F00203C2F80438FFF75EFF78
:1011F0000849204603F080FAD4F89020D2F8043849
:1012000023F00203C2F8043810BD00BF4C7C000874
:1012100010280020547C000870470000F8B571B613
:10122000002301201A46194603F03AF804468020AC
:1012300004F080FA002849D00025254A80274FF481
:10124000D06C3D26136913F0C06F26D1D2F810314F
:1012500013F0C06F21D1236805F100619960236804
:10126000D86023685F602368C3F800C021680B68FA
:1012700043F001030B6021680B6823F01E030B6031
:1012800021680B68DB07FCD4237B8035616806FA94
:1012900003F3B5F5001F0B60D4D1204603F040F8EE
:1012A000B5F5001F11D000240A4E0B4D012004F0AB
:1012B000A3F93388A34205D928682044013404F0F7
:1012C000E1F8F6E7002004F097F961B6F8BD00BF39
:1012D0000020005216250020E824002030B50A44E2
:1012E000084D91420DD011F8013B5840082340F3BE
:1012F0000004013B2C4013F0FF0384EA5000F6D1B8
:10130000EFE730BD2083B8ED30B5002489B00B4D38
:101310001C22214601A80094FFF7FEFE2022694608
:10132000281905F0A3FF30B92034B4F5A07FF5D11A
:10133000012009B030BD0020FBE700BFF00200082B
:101340002DE9F047D8B004460D4616461F46FFF774
:10135000DBFF90BBA369482B31D1082204F11C01AB
:10136000184805F083FF50BB8246DFF85C80DFF849
:101370005C904FF4B07200216846FFF7CDFE08EB99
:101380000A0204F12401684602F0F4F92A464946AB
:10139000684602F0F5F968463A46314602F0F0F93F
:1013A000684602F0EFF928B10AF1200ABAF5A07FE9
:1013B000DFD1122058B0BDE8F0870020FAE71120F5
:1013C000F8E700BFD4740008F0020008000002082B
:1013D000404A2DE9F34110686B4651686A4603C3E1
:1013E00008233D493D4805F051FF0446002836D109
:1013F0000A24FFF789FF002867D0394A6B46106836
:1014000051686A4603C308233649344805F03EFF55
:101410000546002859D00369B3F5F01F55D8418B14
:1014200040F23F42914250D12F4A024402F1100152
:101430008B424AD3103B294900209E1AFFF74EFFEA
:1014400005F11801074632460020FFF747FFAB6859
:101450009F423AD1EB68984208BF002435E0036907
:10146000B3F5F01F01D90B24C3E7B0F8661040F2C2
:101470003F42914201D00C24BBE71B4E064406F1CB
:101480005C02934201D21024B3E75C3B00F1640795
:10149000324612499D1B0020FFF720FF3946804647
:1014A0002A460020FFF71AFFA368984501D00D24B3
:1014B0009FE7E3689842FAD120462B463A463146E8
:1014C000FFF73EFF0446002893D1204602B0BDE856
:1014D000F08100BFC074000890FF1D0000000208EA
:1014E000C9740008DCFF1D000800FEF7837842780D
:1014F0001B04007843EA02231843704700687047D2
:1015000008B50246FFF7FAFF0346101DFFF7F6FF86
:101510000146184608BD00000B0A017043700B0C11
:10152000090E8370C170704708B501EB8202031F7A
:1015300008460431FFF7E2FF43F8040F9142F7D168
:1015400008BD000010B500EB82020C1F54F8041F08
:10155000FFF7E2FF04309042F8D110BD2DE9F041D1
:1015600088460546FFF7CCFF06460C464046FFF787
:10157000C7FF464005F108004C40FFF7C1FF074692
:101580000D4608F10800FFF7BBFF78406940304383
:101590002143BDE8F0810000F8B506460F46FFF78D
:1015A000DDFF05460C4606F1100007F11001FFF7BC
:1015B000D5FF28432143F8BD2DE9F04F0368B7B0AC
:1015C000384CC1F1000A1A93436837491B9383686A
:1015D000364D1C93C368364F1D930369DFF8F8B08E
:1015E0001E9343698AEA0B0B324E1F938369DFF81F
:1015F000ECE02093C369DFF8E8C02193036A2293EB
:10160000436A2393D0E9102362402B4C05922B4A66
:1016100053400693836A2493C36A2593D0E9122327
:1016200062400D92264A5340264A0E93036B009265
:101630002693436B279381EAEA7320991793836B70
:1016400018912893C36B289A299300F150031192A3
:10165000299A21991292269A19910792279A1E99EE
:101660000892249A159103921F99259A1691049233
:10167000DDE922421C990F911D9910911A99099147
:101680001B990A911049CDE9015101F14F7101F502
:10169000D341583113910D4914910D49CDE90B7186
:1016A0000C4F1FE0D182E6ADABD9831F79217E13A9
:1016B0002BF894FE85AE67BB1F6C3E2B7F520E51FC
:1016C0008C68059B7479000819CDE05B3AF54FA54D
:1016D00072F36E3C3BA7CA846BBD41FB08C9BCF3E7
:1016E00067E6096A0099097803EBC10553F83110E0
:1016F0006D68611842EB0508099D49190A9D45EB83
:101700000808059D81EA0509069D88EA050A1AEB85
:101710000E0E4CEB090C8EEA04048CEA0202250E34
:1017200045EA0225120E42EA0422009C64780992DE
:1017300003EBC40253F834405268091948EB02081D
:101740004A190592099A48EB02020692059A82EA22
:101750000A0A069A4FEA1A4182EA090941EA09424D
:1017600009994FEA1949349249EA0A423592349A62
:101770001EEB02022A92359A4CEB02022B922A9A15
:1017800055402B9A51400A46490041EAD5716D00F7
:10179000339145EAD2723292009A927803EBC201F9
:1017A00053F832204968039C0D9DA218049C44EB19
:1017B000010E0F9912EB010A1099009A41EB0E0EDF
:1017C0000E9985EA0A058EEA0108039918EB0707C6
:1017D00046EB050687EA010C74404FEA1C6141EABA
:1017E0000421240E44EA0C2492F803C003EBCC0934
:1017F00053F83CC0D9F804901AEB0C024EEB090EDA
:1018000052180D924EEB04020E920D9A82EA0808CD
:101810000E9A55404FEA184242EA05422D0C30928A
:1018200045EA08423192309ABA182C92319A46EB26
:1018300002022D922C9A51402D9A5440620042EAA5
:10184000D1724900099241EAD4720492009A127945
:1018500003EBC20153F832204D6807998A180899A2
:1018600041EB050515995218169941EB0505179995
:1018700082EA0B04039285EA010A0B99009A1AEB9B
:1018800001060C9992F805E041EB040B079953F817
:101890003E8086EA010C0899039A8BEA01074FEA19
:1018A0001C6112EB080241EA07214FEA176747EA79
:1018B0000C2703EBCE0CDCF8049045EB090552181D
:1018C000159245EB07021692159A82EA0A0A169AB1
:1018D0004FEA1A49544049EA0442240C2E9244EA41
:1018E0000A42119C2F922E9AB6182F9A4BEB020B9C
:1018F00071408BEA07077A0042EAD17249000892E8
:1019000041EAD7720792009A917903EBC10253F82A
:10191000311052686118129C44EB0208189A891819
:10192000199A42EB0808019A029C4A40129F88EAE1
:10193000040E139C1EEB0405149C44EB0209119C3D
:101940006C4089EA070C270E47EA0C274FEA1C6C0B
:101950004CEA042C009CE47903EBC40A53F83440AD
:10196000DAF804A00919059C48EB0A08C91917916F
:1019700048EB0C011891179981EA0E0E18994FEA5D
:101980001E4A4A404AEA024A120C15EB0A0542EA8C
:101990000E4E87EA050749EB0E0989EA0C0C4FEA5F
:1019A0004C0848EAD7727F00129247EADC72119223
:1019B000009A117A03EBC10253F831105268611892
:1019C000069C44EB0208049A8918099A48EB02081D
:1019D00081EA0A0A049A88EA0E0E1EEB06064BEB11
:1019E0000A0B86EA0204099A270E8BEA020247EAEA
:1019F00002274FEA126C009A527A4CEA042C03EB4D
:101A0000C20453F832206468891848EB0408CA19E4
:101A1000099248EB0C020A92099A8EEA020E0A9A7F
:101A20008AEA020A4FEA1E4242EA0A424FEA1A4A88
:101A300001924AEA0E420292019A92190B92029A7C
:101A400042EB0B020C920B9A57400C9A8CEA020C58
:101A50004FEA4C0444EAD772359C7F00049247EA6F
:101A6000DC720392009A927A03EBC20153F832209F
:101A70004E680D998A180E9941EB0606079912EBEC
:101A800001080899009A46EB0106349986EA040A8F
:101A900088EA0101079C1AEB050549EB010985EA73
:101AA000040C089C89EA04074FEA1C6444EA0724F2
:101AB0003F0E47EA0C2792F80BC003EBCC0E53F80D
:101AC0003CC0DEF804E018EB0C0246EB0E061219DF
:101AD0000F9246EB070210920F9A8AEA020A109AB6
:101AE00051404FEA1A4242EA0142090C059241EA8A
:101AF0000A420692059A52191392069A42EB09027B
:101B00001492139A5440149A57407A0042EAD472BD
:101B10006400089244EAD7720792009A127B03EBA2
:101B2000C20153F832204D6815998A18169941EB75
:101B30000505119912EB010A1299009A45EB01056E
:101B400030998AEA0106319985EA01072A9911EB51
:101B5000070E2B9941EB060C11998EEA010412999C
:101B60008CEA0108210E41EA08214FEA186848EA88
:101B7000042492F80D8003EBC80953F83880D9F893
:101B800004901AEB080245EB09055218159245EB33
:101B900004021692159A5740169A56403A0C42EA99
:101BA0000642360C0D9246EA07420E920D9A12EB4F
:101BB0000E0E0E9A42EB0C0C81EA0E0184EA0C0424
:101BC0004FEA440A4AEAD1724900129241EAD472B9
:101BD000179C1192009A917B03EBC10253F83110CC
:101BE00052686118189C44EB0208329A009C8918CC
:101BF000339AE47B48EB02082E9A81EA02092F9A75
:101C000088EA020A2C9A12EB0A072D9A42EB09067F
:101C1000329A87EA020B339A4FEA1B65724045EA13
:101C20000225120E42EA0B2203EBC40B53F8344098
:101C3000DBF804B0091948EB0B084919189148EB77
:101C40000201199118998AEA010A199989EA010988
:101C50004FEA1A4141EA094B4FEA19491BEB0707C2
:101C600049EA0A4185EA070541EB0606179182EA2F
:101C700006014A0042EAD5726D0045EAD174009926
:101C800010310091009D3949A9427FF42BAD099B89
:101C90000C9D83EA0E010A9B83EA0C081A9B5940AB
:101CA0001B9B88EA0303C0E900130F9B13997B4039
:101CB0001F46109B73401E461C9B5F401D9B5E4051
:101CC000159BC0E902760B9E5E40169B5D401E9BF5
:101CD0005E401F9B5D40189BC0E904655940199DFB
:101CE000149B83EA0508209B5940219B88EA030343
:101CF000C0E90613059B83EA0409069B83EA020AEE
:101D0000229B89EA0304239B8AEA0302C0E9084272
:101D1000039B0D9A049C83EA020C0E9B259A5C405F
:101D2000249B12998CEA03035440179AC0E90A34A1
:101D3000079B83EA0B04089B83EA020A269B5C400C
:101D4000279B8AEA0302119BC0E90C42019A5A4080
:101D5000029B83EA010A289B5A40299B8AEA0303D3
:101D6000C0E90E2337B0BDE8F08F00BF347A000819
:101D700070B505460E46144622B9802221465030E1
:101D8000FFF7CAF924F00700E40004F038042844FF
:101D9000A4F12003C4F1200206FA04F406FA03F3C6
:101DA00026FA02F21343D0E9146234431343C0E924
:101DB000144370BD28220021FFF7AEB9012324226D
:101DC000002140F8043BFFF7A7B90000002351F8B9
:101DD000232040F8232001330A2BF8D1704700005C
:101DE000002351F82320524240F8232001330A2BCC
:101DF000F7D17047002330B551F8234052F82350F3
:101E00002C4440F8234001330A2BF5D130BD0000AB
:101E1000002330B551F8234052F82350641B40F89A
:101E2000234001330A2BF5D130BD000030B55242BA
:101E3000041F0439243054F8045F51F8043F8442ED
:101E400083EA050303EA020383EA05032360F2D170
:101E500030BD00002DE9F04F8BB004460846002548
:101E6000FFF74CFB0190081DFFF740FB8301C81DE5
:101E70000093FFF73BFB4FEA401A01F10A00FFF71E
:101E800035FB4FEAC00B01F10D00FFF72FFB860079
:101E900001F11000FFF732FB814601F11400FFF75A
:101EA00025FB4FEAC01801F11700FFF71FFB4701A0
:101EB00001F11A00FFF71AFB030101F11D00049361
:101EC000FFF714FB019A6C4B03EA800312F10070D8
:101ED00005934FEA906045F1000340EA83109B169A
:101EE00081064FEA901C521A06926CEB4C02079244
:101EF000009A101843F1000216F1007C45F1000130
:101F00004FEA9C6C4CEA811C89164FEA8C634FEABD
:101F10009C15F31A65EB450619EB0C0941F100011C
:101F200010F1807C42F100054FEA5C6C4CEAC51C64
:101F30006D161AEB0C0AA0EB4C6245F1000519F185
:101F4000807008924FEA506041F1000240EAC210EE
:101F50005216A9EB4061099118EB0001009142F182
:101F600000021AF1007145F10005890E41EA851160
:101F7000AD161BEB01004FF0130B019045F100056E
:101F8000009810F1007042F10002800E40EA8210C9
:101F900092163F18029742F10002019F17F1807ECE
:101FA00045F100054FEA5E6E4EEAC51E029D13EB39
:101FB0000E0346F1000615F18077049D42F1000200
:101FC0007F0E039347EAC2175216ED1942F1000241
:101FD00013F1007C049546F100064FEA9C6C069BC9
:101FE0004CEA861C15F10076059D42F10002B60E02
:101FF00046EA8216921615EB060942F1000219F123
:10200000807542F100026D0E45EAC215A5FB0B2B4F
:10201000A9EB4565D218079B4BEB030B12F1007837
:10202000089B4BF1000B4FEA986848EA8B18A2EB2B
:102030008862226013EB08026260AAEB8162A260F0
:10204000019B6562A3EB4E61039BA3EB8C63E16094
:102050002361099B13EB0C036361009BA3EB80637B
:10206000A361029BA3EB4760049BA3EB8666E06140
:1020700026620BB0BDE8F08FFCFFFF012DE9F04FA9
:102080000D688BB00C694FF0130B82FB055C82FB73
:10209000044615F100774CF1000ABF0E47EA8A1793
:1020A0004FEAAA680AF07C4ABB064AEA971AEB1A7A
:1020B0004D6806936CEB0A0314F1007CC2FB0578B3
:1020C000079346F1000E4FEA9C6C4D694CEA8E1C5A
:1020D0004FEAAE6A0EF07C4E4FEA8C634EEA9C1ECD
:1020E000C2FB05CAE41A66EB0E0E17F1807548F1C3
:1020F00000086D0E45EAC8154FEA6863A7EB456610
:102100008F6808961CF18076C2FB07534AF1000ADB
:10211000760E15F1007946EACA1643F100034FEA3C
:102120009969ACEB466749EA831909974FEA6A6AED
:102130008F699B16A5EB8965C2FB076ACF6801967C
:102140004E46C2FB07630296019ECF6916F1007CE2
:102150004AF1000A4FEA9C6C4CEA8A1C4FEAAA6AD0
:102160006646C2FB076A0396029E16F1807843F129
:1021700000034FEA586848EAC31814EB08044EEB12
:102180006366039B13F180770B6A496A4AF1000A80
:102190007F0E856047EACA174FEA6A6ABE46C2FBED
:1021A00003EACDF810E014F1007E46F100034FEA97
:1021B0009E6E4EEA831E049B13F10076A4EB8E64A0
:1021C0004AF10003B60E46EA83169B16B246C2FBDE
:1021D00001A31AF18071CDF814A043F10003490E58
:1021E00041EAC3115B16A1FB0B2A0BFB03AA069B5A
:1021F000D218079B4AEB030A12F100734AF1000A56
:102200009B0E43EA8A13A2EB83620260089AD318FA
:102210004360029BA3EB4863C3600461099B13EB1B
:102220000E034361019BA3EB8C638361039BA3EBD0
:102230004767049BA3EB8666059BC761A3EB4161DF
:10224000066241620BB0BDE8F08F00002DE9F04F4F
:10225000A5B04FF0130E8146D1E90053D2E90084B6
:1022600008938B680EFB04F00193CB680993D1E9C6
:1022700004C30A93D1E906730B93D1E908630C9365
:1022800093680293D36804931369069353690D937B
:1022900093690F93D3691693136A1893536A19932A
:1022A000089B5B001093099B5B0011930A9B5B00EA
:1022B00012930B9B5B0013930C9B5B001493029B8C
:1022C0000EFB03F31A93049B0EFB03FB069B0EFB12
:1022D00003F317930D9B0EFB03F315930F9B0EFB5C
:1022E00003F30E93169B0EFB03F30793189B0EFB51
:1022F00003F30593199B0EFB03F30393039A109BBF
:1023000083FB021A019B1A46059BC5FB081AC2FBF8
:10231000031A119B1A46079BC2FB031A0E9BCCFBA8
:10232000031A129B1A46159BC2FB031A179B039AAA
:10233000C7FB031A139BC3FB0B1A1A9BC6FB031A9A
:10234000149BC3FB001A089B1B9188FB0330019967
:10235000C5FB0430C2FB013005990A460999C2FB4E
:1023600001300799C1FB0C300E990A460A99C2FB4D
:1023700001301599C1FB073017990A460B99C2FB2A
:1023800001301A99CBFB063002460C98C1FB003293
:102390001A93109B029983FB04301C92C5FB0130F9
:1023A0000199039AC8FB01301199C2FB01300599CC
:1023B000C1FB0C3007990A461299C2FB01300E99F5
:1023C000C1FB073015990A461399C2FB01301799D2
:1023D000C1FB06301499CBFB01300299CDE91D30C9
:1023E000089B83FB01B0049B0A99C5FB03B0019BCA
:1023F000C3FB04B0099BC8FB03B0039BC3FB0CB039
:10240000059BC3FB01B0079B0B99C3FB07B00E9B59
:10241000C3FB01B017990C9BC2FB06B0C1FB03B014
:10242000109B0499209083FB01310698CDF87CB075
:10243000C5FB0031019802460298C2FB0031119899
:10244000039AC0FB04311298C8FB0C31C2FB003167
:102450000598C0FB0731079802461398C2FB00316C
:102460000E98C0FB0631159802461498C2FB003145
:1024700006981593089B0D9A83FB00031791C5FBE3
:102480000203019A9346049ACBFB0203099A9346EE
:10249000029ACBFB02030A9ACCFB0403C8FB02039B
:1024A000039AC2FB0703059A93460B9ACBFB0203E0
:1024B000079AC2FB06030E9A93460C9ACBFB0203C3
:1024C0000D9A2193109B0E9083FB02030F9AC5FB7C
:1024D0000203019A9346069ACBFB0203119A934694
:1024E000049ACBFB0203029ACCFB0203129AC2FBB2
:1024F0000403139A0399C8FB0703C1FB0203059A5F
:10250000C2FB0603079A9346149ACBFB02030F9A69
:102510002293089B079083FB0203169AC5FB0203D4
:10252000019A93460D9ACBFB0203099A9346069AA9
:10253000CBFB0203049ACCFB02030A9A9346029A4D
:10254000CBFB02030B9AC7FB0403C8FB0203059AEB
:10255000C1FB060393460C9ACBFB0203169A239306
:10256000109B059083FB0203189AC5FB0203019A96
:1025700093460F9ACBFB0203119A93460D9ACBFB1D
:102580000203069ACCFB0203129A9346049ACBFBF1
:102590000203029AC7FB0203139AC2FB0403149AB4
:1025A000C8FB0603C1FB0203189A1193089B109005
:1025B00083FB023219981799C5FB00320198154622
:1025C000169AC0FB0235099A0F98C2FB00350D9A86
:1025D0000698CCFB02350A9AC2FB0035049A029891
:1025E000C7FB02350B9A159FC2FB00350C98C6FB42
:1025F00004352A461B9CC8FB003206931B9B08929D
:1026000013F100764AF10000B60E46EA801600F09B
:102610007C43B20643EA9613A21A6AEB03030992BB
:102620000A931A9B9E191C9B43EBA060159B13F108
:102630000075179B4FEA956543F1000345EA831542
:1026400003F07C44AA0644EA9514BA1A61EB04012B
:102650000E9C6519219C44EBA36316F1807440F134
:102660000000640E44EAC014A6EB44660B961D9E5F
:10267000341901941E9C44EB606015F1807443F1A1
:102680000003640E44EAC314A5EB44650C95079D52
:102690002C190294229C44EB6363019C14F1007496
:1026A00040F100004FEA94681F9C48EA801814EB40
:1026B000080B209C44EBA060029C14F10076059C62
:1026C00043F10003B60E46EA831614EB060A239C78
:1026D00044EBA3631BF1807C40F100004FEA5C6C8B
:1026E0004CEAC01C12EB0C0241EB60611AF18075E0
:1026F000109843F100036D0E039245EAC31540198B
:10270000AAEB45650490119840EB636312F10077E2
:1027100041F10001BF0E47EA8117049911F10074DD
:10272000069943F10003A40E44EA831409190591A4
:10273000089941EBA363059911F1807043F10003FF
:10274000400E40EAC3105B16A0FB0E120EFB0323E3
:10275000099A89180A9A43EB020311F1007E43F1AA
:1027600000034FEA9E6E4EEA831E0B9B13EB0E0393
:10277000A1EB8E61C9F80430019BC9F80010A3EBEE
:102780008863C9F80830ABEB4C63C9F80C30039B85
:10279000A3EB8762C9F810200C9BC9F81C50DF1905
:1027A000029BA3EB8666049BC9F81470A3EB8464B8
:1027B000059BC9F81860A3EB4060C9F82040C9F830
:1027C000240025B0BDE8F08F2DE9F04F95B082468A
:1027D0004FF02608D1E90262D1E9003008924FEAB1
:1027E000400B4FEA430ED1E904720392D1E906523D
:1027F00004920A6A05924A6A1321099272000692AB
:10280000089A52000192039A52000292049A5200CE
:102810000A9201FB05F20B92049A08FB02F207925E
:10282000059A01FB02F9099A039908FB02F208FBD9
:1028300001F88BFB021CC3FB031C7300C3FB091CC8
:10284000019B1C46079BC4FB031C0B9C7B00C3FB2A
:10285000041C039BC3FB081C82FB06380C910199E6
:10286000CEFB0038C9FB01380799C1FB0738029934
:102870000C460B99C1FB04380D938BFB003101987A
:10288000CEFB0631C2FB00317800C9FB003107984E
:1028900004460298C4FB00310B98C0FB0531089830
:1028A0000E910B938BFB0631CEFB00310298C2FBDD
:1028B0000731C9FB0031C4FB0531CDE90F31019B64
:1028C000680002998BFB0334CEFB0734C6FB063449
:1028D000C2FB01340799C9FB00340498C1FB0034E2
:1028E0008BFB07160793039B0898C3FB0E16069BEA
:1028F000C3FB00160A98C2FB05160B463146C9FBFE
:102900000031CDE91131029B8BFB0310069BCEFBFE
:102910000510C3FB0710019B1E46089BC6FB031056
:102920000A9BC2FB0310059B0E46C9FB03608BFB91
:1029300005130896049ECEFB0613069EB146039E21
:10294000C9FB0613019EC6FB0713059E894606991F
:10295000C2FB069313930A9BCDF80C908BFB039359
:10296000CEFB0693C1FB0593DDE90116C1FB06937F
:102970000999C7FB0793C2FB01930A93059B0E4677
:102980008BFB0312069BCEFB0612049EC3FB0612B2
:10299000019BC3FB0512029D0E461346C7FB056350
:1029A00006930C9B0C9D13F1007E05964CF10001E3
:1029B0004FEA9E6E4EEA811E01F07C434FEA8E6222
:1029C00043EA9E13AD1A6CEB03030995079D0C9324
:1029D0000D9B13EB0E0E079B48EBA16813F1007CD7
:1029E00044F100034FEA9C6C4CEA831C03F07C41E9
:1029F0004FEA8C6241EA9C11AA1A64EB0104119916
:102A000011EB0C0C129941EBA3631EF1807648F197
:102A10000001760E46EAC116AEEB466507950B9DA2
:102A2000AD1901950E9D45EB61611CF1807E43F16E
:102A300000064FEA5E6343EAC613ACEB43650B95B1
:102A4000089DEB18029340EB6663019810F1007645
:102A50000F9841F100014FEA966848EA811810EB9F
:102A6000080B109840EBA161029810F1007643F139
:102A70000000B60E039B46EA80169B190393139B36
:102A800043EBA0631BF1807C41F100004FEA5C6CDA
:102A90004CEAC01C12EB0C0244EB606103980492F8
:102AA00010F180750A9843F100036D0E45EAC315D5
:102AB00019EB050940EB636312F100774FF0130245
:102AC00041F1000119F100744FEA976743F10003E7
:102AD000A40E47EA8117059944EA83140919A9EB62
:102AE00084640591069941EBA363059911F1807007
:102AF00043F10003400E40EAC3105B16A0FB021E28
:102B000002FB03E3099A89180C9A43EB020311F1C3
:102B1000007E43F100034FEA9E6E4EEA831E079B40
:102B200013EB0E03A1EB8E61CAF80430019BCAF8C7
:102B30000010A3EB8863CAF80830ABEB4C63CAF80B
:102B40000C30049BA3EB87620B9BDF19CAF81020A3
:102B5000CAF81470029BCAF82040A3EB8666039B58
:102B6000A3EB4565059BCAF81860A3EB4060CAF863
:102B70001C50CAF8240015B0BDE8F08F0029A1BF91
:102B8000CB1001F00701C05C40FA01F1ACBF01F0CD
:102B9000010000207047000070B500F11C02041F06
:102BA000084E0120002556F8041B54F8043FC94381
:102BB0005B1845EB05011B1841F10000A242F2D160
:102BC00070BD00BFDC740008F8B500240646084656
:102BD0000D46FFF7E1FFDFF834C00246C117C0F130
:102BE000000E20465CF8043B55F824702EEA0303DF
:102BF000DB1940EB00079B1846F8243004F1010470
:102C000041EB07020021082CECD1F8BDDC74000870
:102C100010B50446FFF7CEF804F12800FFF7CEF810
:102C200004F15000FFF7CAF804F17800BDE8104045
:102C3000FFF7C0B838B50A4605460C462831FFF7FD
:102C4000D9F82830FFF7E4F804F1500105F15000FD
:102C5000FFF7BCF804F1780105F17800024ABDE8FD
:102C60003840FFF7F3BA00BF247500082DE9F043A0
:102C700095B0044616460D460A466846283104F1CA
:102C80002808FFF7B7F80AA8FFF7C2F832466946E6
:102C90006846FFF7DBFA0AA906F1280204F150079B
:102CA000084604F17809FFF7D1FA0AAA69464046B6
:102CB000FFF7A0F82046FFF7ABF805F150023846C1
:102CC0001146FFF797F806F150023946FFF7BEFAB2
:102CD00006F1780205F178014846FFF7B7FA4A464F
:102CE00039466846FFF786F80AA8FFF791F842468A
:102CF00021464846FFF7AAFA0AAA21462046FFF7CE
:102D0000A5FA6A4641464046FFF7A0FA0AAA694674
:102D10003846FFF79BFA15B0BDE8F0832DE9F84F70
:102D20000A9E1C460546904618460F460A4628311C
:102D3000FFF760F8304605F1280AFFF769F84246C8
:102D40002146204605F15009FFF780FA08F12802D4
:102D500031463046FFF77AFA324621465046FFF7B1
:102D600049F82846FFF754F807F1500205F1780BAF
:102D700048461146FFF73EF808F1500207F1780186
:102D80005846FFF763FA5A4649462046FFF732F89D
:102D90003046FFF73DF8524629465846FFF756FAA7
:102DA000324629462846FFF751FA224651465046F8
:102DB000FFF74CFA324621464846BDE8F84FFFF788
:102DC00045BA00002DE9F0471446894607461046EB
:102DD00004F1280809F1280A04F15005FFF7F4FC72
:102DE00051464046FFF7F0FC09F15001284604F136
:102DF0007806FFF7E9FC294628460222FFF73EF94C
:102E0000494607F1780952463046FEF7F3FF31464E
:102E10004846FFF7D9FC224641463046FEF7EAFF16
:102E20004046FEF7F5FF324649462046FEF7F0FFE2
:102E3000424629462846FEF7EBFF2A4621463846F9
:102E4000FFF704FA4246314607F12800FFF7FEF982
:102E50002A46414607F15000FFF7F8F9324621466D
:102E60004846BDE8F047FFF7F1B9000038B5FC224D
:102E700004460D4611462846FFF780FE08B9013A80
:102E8000F8D14FF6FF7301322380E270A37038BD92
:102E90002DE9F84F9846C37805460E4693420CD16B
:102EA00011464046571EFFF769FE04464046394624
:102EB000FFF764FE844209D1EF70B5F90030934208
:102EC0000CBF95F902000020BDE8F88F511C4FF0AF
:102ED00000098E42A8BF0E4606F1FF3A971B04FA7E
:102EE0000AF4BB466442CA450BF1010B09DD5946A1
:102EF0004046FFF743FE00FA09F009F101090444D6
:102F0000F1E739464046FFF739FE04446342234067
:102F100013F0AA0F14BF0120002013F0CC0118BF3A
:102F2000022113F0F00340EA010018BF0423511CF2
:102F300003438E1B1E4444FA03F32E80AB70BBE7A1
:102F4000D0E9103210B5D0F8D04000211B1952F151
:102F5000000228BF0121C0E9103231B1D0E912329C
:102F6000013342F10002C0E9123210BD70B50D46C6
:102F7000A0F1080600F1780428460835FEF7C0FAEB
:102F8000E6E90201A642F7D170BD0000F8B504469B
:102F90000D468E180027B54218D0D4F8D030802BBB
:102FA00007D12046FFF7CCFF0021FEF705FBC4F850
:102FB000D070D4F8D020204615F8011BFEF7D8FEBB
:102FC000D4F8D0300133C4F8D030E4E7F8BD0000C5
:102FD00008B5FEF7E1FA0843B0FA80F0400901387D
:102FE00008BD000000231A468B4202D0C2540133B0
:102FF000FAE7704770B59EB005460C460426684651
:10300000FFF7E2FB69460AA8FFF7DEFB0AA90846BC
:10301000FFF7DAFB0AAA21461046FFF717F90AAABA
:1030200069466846FFF712F969466846FFF7CCFB28
:103030006A460AA96846FFF709F969460AA8FFF730
:10304000C3FB0AA90846FFF7BFFB013EF9D16A4658
:103050000AA968460926FFF7F9F869460AA8FFF7A2
:10306000B3FB0AA90846FFF7AFFB013EF9D10AA955
:103070006A4613260846FFF7E9F80AA914A8FFF7DD
:10308000A3FB14A90846FFF79FFB013EF9D10AAA4A
:1030900014A909261046FFF7D9F80AA90846FFF730
:1030A00093FB0AA90846FFF78FFB013EF9D16A4658
:1030B0000AA968463126FFF7C9F869460AA8FFF74A
:1030C00083FB0AA90846FFF77FFB013EF9D10AA955
:1030D0006A4663260846FFF7B9F80AA914A8FFF75D
:1030E00073FB14A90846FFF76FFB013EF9D10AAA4A
:1030F00014A931261046FFF7A9F80AA90846FFF7D8
:1031000063FB0AA90846FFF75FFB013EF9D16A4657
:103110000AA96846FFF79AF869466846FFF754FB24
:1031200069466846FFF750FB224669462846FFF786
:103130008DF828216846FFF755FF0DEB0100FFF7DA
:1031400051FF14A8FFF74EFF1EB070BD10B58CB034
:10315000044602A80191FFF74DFF02A90846FFF7B8
:1031600033FB02A90846FFF72FFB02A9019A084684
:10317000FFF76CF802A90846FFF726FB019A02A99F
:103180002046FFF763F8282102A8FFF72BFF0CB0B9
:1031900010BD000070B58AB002460B4601F128064A
:1031A0006D461868083353F8041C2C46B34203C418
:1031B0002546F6D11321099B684600244B436946F6
:1031C00003F180735B160568013408302B4450F816
:1031D000045C052C05EBA3634FEA6363F3D1132072
:1031E000002443430868013408310344052C23F0CC
:1031F0007C4041F8080C51F8040C00EBA3604FEA46
:10320000606320F07E4041F8040CEBD11046DDE90C
:10321000003143EA8161FEF77FF90299019B101D9D
:10322000C90441EA9311FEF777F90399029B02F171
:103230000800490341EA5331FEF76EF90499039BF4
:1032400002F10C00890141EAD341FEF765F902F170
:103250001000DDE9053143EA4161FEF75DF90799A8
:10326000069B02F11400C90441EAD311FEF754F998
:103270000899079B02F11800090341EA5331FEF750
:103280004BF90999089B02F11C00890141EA13518D
:10329000FEF742F928216846FFF7A4FE0AB070BD88
:1032A0002DE9F04F2DED028B9DB00C4664220021DC
:1032B00008EE100A03A8FDF72FFF0DF10C080022FD
:1032C000DFF8E0E0414604F13C099246CDF8008089
:1032D0005EF8043B251F8C4600269846284650F889
:1032E000047FD346DCF800300197019FE8FB073BE1
:1032F0009B194BF1000681454CF8043BEFD101329C
:103300000E640431092AE3D10021202203A8FDF72D
:1033100003FF002103AB8E461A6C0020DFF888A063
:103320009C4690460646C1F108095AF8047BF346CC
:10333000DCF8002001300197019FE8FB072B921970
:103340004BF1000648454CF8042BEED30131043311
:103350000829E1D11C3401210020009B1A6855F88E
:10336000043FD2439B1840EB00025B18009941F8E0
:10337000043B009142F10001A542EED103A90846A9
:10338000FFF722FC082203A918EE100AFEF7DAF86C
:10339000642103A8FFF726FE1DB0BDEC028BBDE83B
:1033A000F08F00BF347A0008DC74000810B588B0D4
:1033B00001466846FFF7EEFE9DF800406846202172
:1033C00004F00104FFF70EFE204608B010BD000017
:1033D00030B59FB00D46044650316846FFF7B6FE43
:1033E0006A4629460AA8FEF731FF6A4605F1280118
:1033F00014A8FEF72BFF14A92046FFF7CBFE0AA85E
:10340000FFF7D4FFE37F282183EAC010E077684606
:10341000FFF7E8FD0DEB0100FFF7E4FD14A8FFF74F
:10342000E1FD1FB030BD000010B590B00446102281
:1034300001466846FEF778F869462046FFF730FFF8
:1034400040216846FFF7CEFD10B010BD10B590B01A
:103450000C4601466846FFF79DFE214608A8FFF787
:1034600099FE08A96846FFF7B3FD20210446684687
:10347000FFF7B8FD0DEB0100FFF7B4FD601C10B0C5
:1034800010BD0000F0B595B004466846FEF79EFCFE
:1034900069462046FFF7AEFD21460AA8FFF794F9DA
:1034A0000AA96A460846FEF7D1FE6846FEF786FC82
:1034B00069460AA8FFF7CAFF694606466846FEF74E
:1034C0008FFC0AA8FFF7C2FF104A0546684611465E
:1034D000FEF786FC69460AA8FFF7B8FF07462146B3
:1034E00068460A4AFEF7B2FE45EA070269462046E8
:1034F000FEF79CFC28210DEB0100FFF773FD6846E9
:10350000FFF770FD46EA050015B0F0BD8C750008A8
:10351000DFF880C02DE9F0419046A0B004460E4689
:103520001D4600F108070CF138026346083703CB4B
:10353000934247F8080C47F8041C9C46F5D186EAEC
:103540000522124B0021534000222360104B636080
:103550000023C4E93416C4E91023C4E912238DB151
:103560007C2201A80091FDF7D7FD2A464146684616
:10357000FDF7ACFD694604F15000FFF7F7FC80232E
:10358000C4F8D03020B0BDE8F08100BF08C9BDF25A
:1035900067E6096A54750008002340211A46FFF7C0
:1035A000B7BF00008830FFF7F7BF00002DE9F047F4
:1035B00004460D4617469AB3D0F8D0604FF0000A83
:1035C00004F150094FF08008764206F07F069642DB
:1035D00028BF164632463544BE1BFFF7D7FC26F0FF
:1035E0007F072F44AF4213D0D4F8D030802B07D1BF
:1035F0002046FFF7A5FC0021FDF7DEFFC4F8D0A0B0
:1036000029464846FFF7B2FC8035C4F8D080E9E788
:1036100006F07F0239462046BDE8F047FFF7B6BC0A
:10362000BDE8F0878830FFF7C1BF00002DE9F843FF
:1036300004460D46D0F8D0607F2E06D832460021D1
:1036400020460136FEF794FBF6E72046A4F1080772
:10365000FFF776FC0121FDF7AFFFD4F8D4202E460A
:1036600022F00708A84446450CD057F8081F3046FA
:10367000D7F80490FDF750FF301D08364946FDF796
:103680004BFFF0E722F00703D4F8D4209A4217D971
:1036900003F0070223F00700DE08D100204454F8AD
:1036A00036204768C1F12006A1F12000CA4007FA80
:1036B00006F627FA00F032430243EA540133E3E707
:1036C0002046D821BDE8F843FFF78CBC8830FFF7CF
:1036D000ADBF000010B5B6B004466846FFF718FF4E
:1036E0006846DDE93812FFF761FF21466846FFF7BB
:1036F0009DFF36B010BD0000002307B5CDE90012D4
:103700001A464021FFF7E6FF03B05DF804FB000016
:1037100003689B68184700002DE9F0410E460446F7
:1037200015460139024606F13F0042F8043B11F804
:10373000017F814202F8017BF9D16A1E04F1640124
:1037400005F11F0012F8017F824201F8017BF9D1D7
:1037500020465B6898472368314620469B682022B4
:1037600098472368294620469B682022BDE8F041FF
:1037700018470000014BFFF7CFBF00BF587A000881
:10378000FFF7C6BF2DE9F04F8046ADF56F7D0546CA
:1037900058F8043B16A905F1240A05F16409DB6811
:1037A00026AC984716A8FFF73FFE0822514604A80A
:1037B000FDF7BAFE494630A8FEF74CFB3AA8FEF7E3
:1037C000FDFA30A944A8FEF7FFFF864A44A9204627
:1037D000FEF73CFD44A93AAA0846FEF719FB20462D
:1037E0002146FEF707FB44A92246FEF72FFD21469E
:1037F0002046FFF747FE28B94FF0FF300DF56F7DEB
:10380000BDE8F08F224644A92046FEF71FFD204662
:10381000FFF7CCFD95F88330B0EBD31F03D02146E2
:103820002046FEF7DDFA44A830AA2146FEF70EFD39
:1038300004A8FFF7B1F90028DED121462046FEF7A3
:10384000CFFA44A94EAF0846FEF7CAFA76AA214637
:103850003846FFF7B7FA21469EA8FFF7EBF99EAA74
:10386000394676A8FFF702FA76A9C6A8FFF7E2F96B
:1038700016A902A8FFF7FAFA03A85146FFF7F6FACD
:103880009DF80B609DF80F3020469E4238BF1E46C3
:10389000FFF7BEF93A4621462046FFF793FA16ABEA
:1038A0003246032102A8FFF7F3FA054653460521E5
:1038B00003A8FFF7EDFA002D834623DD6D10A0224B
:1038C0009EAB02FB053221462046FFF7CFF9BBF144
:1038D000000F3ADD76AB44494FEA6B0B7822009338
:1038E000204602FB0B120CAB2146FFF717FA013EF4
:1038F000D0D226A94846FFF76BFD49464046FFF760
:1039000067FB7BE7E3D005EBD5756FF09F019EABBE
:1039100080A86D104D435919FEF758FA9EAB05F17A
:10392000280176A81944FEF751FA9EAB05F1500123
:103930008AA81944FEF74AFA9EAB05F1780194A8CB
:103940001944FEF74DFA76AABDE7D0D00BEBDB7336
:10395000254A6FF0770530A95B100CA803FB0525FD
:103960002246FEF747FA76A8FEF752FA0CA905F1AF
:1039700028020846FEF76AFC76A92A460846FEF7A2
:1039800065FC76AA0CA930A8FEF734FA2046FEF7AB
:103990003FFA3AAA11461046FEF72CFA44A905F15F
:1039A00050020846FEF752FC44AA3AA90CA8FEF7BA
:1039B0002FFA76A8FEF71EFA30AA214644A8FEF791
:1039C00045FC76AA21462046FEF740FC30A90CAA09
:1039D0000846FEF73BFC76AA0CA93AA8FEF736FC8F
:1039E00085E700BFFC740008B47500084FF0FF3095
:1039F0007047000000207047704700000CB407B506
:103A000004AB53F8042B019300F0E8F903B05DF820
:103A100004EB02B070470000F0B500F10B04234640
:103A20000D46B1FBF2F102FB115707F13006392EBA
:103A3000C8BF07F13706954203F8016DF0D2421E68
:103A4000E11A13F8015B9C4202F8015FF9D10844C6
:103A5000F0BD00002DE9F04F804687B015464FF0CD
:103A600000090C4614F8013B002B3BD0252B08D055
:103A7000D8F800201946404609F10109D26890475C
:103A800049E14B782D2B06BF8C1C012300230193A9
:103A900023782B2B06BF01340127002794F800A0C0
:103AA000BAF1300F0CBF01344FF0200A23782A2BD3
:103AB0001CD16178023455F804BB2E2943D12178FA
:103AC00081B12A2921D0661C0020A1F130023446A0
:103AD000D2B2092A1DD80A2316F8011B03FB0020C5
:103AE0000029F2D1484607B0BDE8F08F4FF0000B37
:103AF00014F8011B0029F5D0A1F13002D2B2092A35
:103B0000DBD80A2303FB0B2BF2E76178023455F86C
:103B1000040B01F0DF024C2A17D121780029E1D0F3
:103B2000782904F101041FD8622900F20081582984
:103B30001AD84E2900F23081442900F09180492999
:103B400000F08E8010E00020E3E7A1F14102782927
:103B5000D2B209D862290BD8582905D84E293BD8AA
:103B6000442978D0492976D02E468DF80C1056E09D
:103B7000A1F16306152EF7D80FF2040C5CF826F0BD
:103B8000113C0008573C0008693B0008693B0008ED
:103B9000693B0008693B0008573C0008693B000886
:103BA000693B0008693B0008693B0008693B000865
:103BB000E73C0008D53D0008693B0008693B000868
:103BC000273C0008693B0008D13D0008693B00081C
:103BD000693B0008D53D0008A1F14F02092AC3D86E
:103BE00001A050F822F000BFE73C0008D53D0008D6
:103BF000693B0008693B0008693B0008693B000815
:103C0000D13D0008693B0008693B0008D53D00082C
:103C10002E464FF0200A56F8042B8DF80C2003ADE9
:103C20000DF10D002BE02E4647F6FF726A4B56F859
:103C3000045B002808BF1046002D08BF1D462A4619
:103C40002F18104612F8011B11B1B91A0029F8DA21
:103C50004FF0200A13E02E46192A56F8041B02D80A
:103C60002E4656F8041B002936DA2D2249428DF8DB
:103C70000C200DF10D000A2203ADFFF7CDFE471B0E
:103C80000199ABEB070323EAE372002945D1002B2E
:103C9000C2F1000B1EDD29782D2901D02B290DD171
:103CA000BAF1300F0AD1D8F800304046019209F13C
:103CB0000109DB68013F98470135019AD8F80030C7
:103CC000514640460192DB6898471BF1010B019A6F
:103CD000F4D191443B4615E01FB12B228DF80C2006
:103CE000C7E703A8C7E708222E4603A856F8041B17
:103CF000C2E7D8F80020404615F8011BD2680193AE
:103D00009047019B013BF4D5002FA8BFB9445D4605
:103D10002DB9D94435462146A3E69346DAE7D8F8CB
:103D2000003051464046013DDB689847F0E7A1F17D
:103D30006302152A3FF618AF01A353F822F000BF23
:103D4000113C0008613C0008693B0008693B000821
:103D5000693B0008693B0008613C0008693B0008BA
:103D6000693B0008693B0008693B0008693B0008A3
:103D7000E73C0008D53D0008693B0008693B0008A6
:103D8000273C0008693B0008D13D0008693B00085A
:103D9000693B0008D53D0008A1F14F02092A3FF612
:103DA000E3AE01A353F822F0E73C0008D53D00083C
:103DB000693B0008693B0008693B0008693B000853
:103DC000D13D0008693B0008693B0008D53D00086B
:103DD0000A2289E7102287E76C7A0008F0B50546C9
:103DE00087B016461F460C4689B14A1E0023294655
:103DF00001A800F05FF83A46314601A8FFF72AFE15
:103E0000049BA3423CBF0022EA5407B0F0BD0A461F
:103E1000ECE70000D0E902239A421FBF4268D15468
:103E2000C36801331ABFC36000206FF00100704700
:103E3000D0E903239A421FBF4268D25C0133036179
:103E400014BF10466FF001007047000003692BB1EA
:103E5000013B426803610020D15470476FF00100BC
:103E60007047000038B504460846D4E903315B1AB0
:103E7000934228BF13461D4663682A461944FDF73E
:103E800025F9236928462B44236138BD38B50446FB
:103E9000D0E902301B1A934228BF13461D466368BF
:103EA0002A461844FDF712F9E36828462B44E360DC
:103EB00038BD000010B5C0E90223034C0023C0E95F
:103EC0000041036110BD00BF747A000808B5074BBC
:103ED000074A196801F03D01996053680BB1906879
:103EE0009847BDE8084001F021BD00BF0000024036
:103EF0001825002008B5084B1968890901F03D0113
:103F00008A019A60054AD3680BB110699847BDE8E9
:103F1000084001F00BBD00BF000002401825002042
:103F200008B5084B1968090C01F03D010A049A60B4
:103F3000054A53690BB190699847BDE8084001F004
:103F4000F5BC00BF000002401825002008B5084B52
:103F50001968890D01F03D018A059A60054AD36907
:103F60000BB1106A9847BDE8084001F0DFBC00BF04
:103F7000000002401825002008B5074B074A596881
:103F800001F03D01D960536A0BB1906A9847BDE8D2
:103F9000084001F0CBBC00BF000002401825002003
:103FA00008B5084B5968890901F03D018A01DA60BA
:103FB000054AD36A0BB1106B9847BDE8084001F081
:103FC000B5BC00BF000002401825002008B5084B12
:103FD0005968090C01F03D010A04DA60054A536B87
:103FE0000BB1906B9847BDE8084001F09FBC00BF43
:103FF000000002401825002008B5084B5968890DBB
:1040000001F03D018A05DA60054AD36B0BB1106CF3
:104010009847BDE8084001F089BC00BF000002409D
:104020001825002008B5074B074A196801F03D0123
:104030009960536C0BB1906C9847BDE8084001F053
:1040400075BC00BF000402401825002008B5084BCD
:104050001968890901F03D018A019A60054AD36C0B
:104060000BB1106D9847BDE8084001F05FBC00BF80
:10407000000402401825002008B5084B1968090CF7
:1040800001F03D010A049A60054A536D0BB1906D31
:104090009847BDE8084001F049BC00BF0004024059
:1040A0001825002008B5084B1968890D01F03D015D
:1040B0008A059A60054AD36D0BB1106E9847BDE82A
:1040C000084001F033BC00BF000402401825002066
:1040D00008B5074B074A596801F03D01D960536E96
:1040E0000BB1906E9847BDE8084001F01FBC00BFBF
:1040F000000402401825002008B5084B59688909BA
:1041000001F03D018A01DA60054AD36E0BB1106FF0
:104110009847BDE8084001F009BC00BF0004024018
:104120001825002008B5084B5968090C01F03D011D
:104130000A04DA60054A536F0BB1906F9847BDE8E7
:10414000084001F0F3BB00BF000402401825002026
:1041500008B5084B5968890D01F03D018A05DA6000
:10416000054AD36F13B1D2F880009847BDE80840E4
:1041700001F0DCBB000402401825002000230C499C
:1041800010B51A460B4C0B6054F82300026001EB8B
:10419000430004334260402BF6D1074A4FF0FF330F
:1041A0009360D360C2F80834C2F80C3410BD00BF6D
:1041B000182500208C7A0008000002400F28F8B56E
:1041C00010D9102810D0112811D0122808D10F248E
:1041D0000720DFF8C8E00126DEF80050A04208D929
:1041E000002653E00446F4E70F240020F1E70724FB
:1041F000FBE706FA00F73D424AD1264C4FEA001C85
:104200003D4304EB00160EEBC000CEF80050C0E9B1
:104210000123FBB273B12048D0F8D83043F001033A
:10422000C0F8D830D0F8003143F00103C0F80031B5
:10423000D0F8003117F47F4F0ED01748D0F8D8309F
:1042400043F00203C0F8D830D0F8003143F0020345
:10425000C0F80031D0F8003154F80C00036823F0A6
:104260001F030360056815F00105FBD104EB0C0387
:104270003D2493F80CC05F6804FA0CF43C602124E0
:104280000560446112B1987B00F054F83046F8BDE7
:104290000130A3E78C7A000800440258182500205A
:1042A00010B5302484F31188FFF788FF002383F3CF
:1042B000118810BD10B50446807B00F051F8012331
:1042C0001549627B03FA02F20B6823EA0203DAB2B1
:1042D0000B6072B9114AD2F8D81021F00101C2F86E
:1042E000D810D2F8001121F00101C2F80011D2F863
:1042F000002113F47F4F0ED1084BD3F8D82022F0C1
:104300000202C3F8D820D3F8002122F00202C3F839
:104310000021D3F8003110BD1825002000440258B8
:1043200008B5302383F31188FFF7C4FF002383F31C
:10433000118808BD090100F16043012203F56143C2
:10434000C9B283F8001300F01F039A4043099B0091
:1043500003F1604303F56143C3F880211A6070479D
:1043600000F01F0301229A40430900F160409B00C6
:1043700000F5614003F1604303F56143C3F8802019
:10438000C3F88021002380F8003370470268436837
:104390001143016003B118477047000013B5406B2B
:1043A00000F58054D4F8A4381A681178042914D17F
:1043B000017C022911D11979012312898B40134202
:1043C0000BD101A94C3002F0A1F9D4F8A44802465F
:1043D000019B2179206800F0DFF902B010BD0000D8
:1043E000143002F023B900004FF0FF33143002F014
:1043F0001DB900004C3002F0F5B900004FF0FF335A
:104400004C3002F0EFB90000143002F0F1B80000B7
:104410004FF0FF31143002F0EBB800004C3002F0E6
:10442000C1B900004FF0FF324C3002F0BBB90000C0
:104430000020704710B500F58054D4F8A4381A68ED
:104440001178042917D1017C022914D1597901234B
:1044500052898B4013420ED1143002F083F8024689
:1044600048B1D4F8A4484FF4407361792068BDE89E
:10447000104000F07FB910BD406BFFF7DBBF0000BC
:10448000704700007FB5124B0125042604460360E7
:104490000023057400F1840243602946C0E9023319
:1044A0000C4B0290143001934FF44073009602F0CD
:1044B00035F8094B04F69442294604F14C00029465
:1044C000CDE900634FF4407302F0FCF804B070BD16
:1044D0008C7B0008794400089D4300080A6830235B
:1044E00083F311880B790B3342F823004B79133394
:1044F00042F823008B7913B10B3342F8230000F507
:104500008053C3F8A41802230374002080F3118899
:104510007047000038B5037F044613B190F854305B
:10452000ABB90125201D0221FFF730FF04F1140073
:104530006FF00101257700F09DFC04F14C0084F838
:1045400054506FF00101BDE8384000F093BC38BD15
:1045500010B5012104460430FFF718FF002323772C
:1045600084F8543010BD000038B5044600251430DE
:1045700001F0ECFF04F14C00257702F0BBF8201DA0
:1045800084F854500121FFF701FF2046BDE8384070
:10459000FFF750BF90F8803003F06003202B06D166
:1045A00090F881200023212A03D81F2A06D8002052
:1045B0007047222AFBD1C0E91D3303E0034A42675A
:1045C00007228267C3670120704700BF9023002045
:1045D00037B500F58055D5F8A4381A681178042944
:1045E0001AD1017C022917D11979012312898B4034
:1045F000134211D100F14C04204602F03BF958B1AE
:1046000001A9204602F082F8D5F8A4480246019B91
:104610002179206800F0C0F803B030BD01F10B0330
:10462000F0B550F8236085B004460D46FEB1302346
:1046300083F3118804EB8507301D0821FFF7A6FEE0
:10464000FB6806F14C005B691B681BB1019002F02E
:104650006BF8019803A902F059F8024648B1039B90
:104660002946204600F098F8002383F3118805B00E
:10467000F0BDFB685A691268002AF5D01B8A013B1D
:104680001340F1D104F18002EAE70000133138B59C
:1046900050F82140ECB1302383F3118804F58053A6
:1046A000D3F8A4281368527903EB8203DB689B6973
:1046B0005D6845B104216018FFF768FE294604F1E2
:1046C000140001F059FF2046FFF7B4FE002383F3E6
:1046D000118838BD7047000001F026BA012340223E
:1046E000002110B5044600F8303BFCF715FD00230F
:1046F000C4E9013310BD000010B53023044683F334
:1047000011882422416000210C30FCF705FD204671
:1047100001F02CFA02230020237080F3118810BDD1
:1047200070B500EB8103054650690E461446DA6009
:1047300018B110220021FCF7EFFCA06918B110227B
:104740000021FCF7E9FC31462846BDE8704001F045
:1047500013BB000083682022002103F0011310B571
:10476000044683601030FCF7D7FC2046BDE81040BB
:1047700001F08EBBF0B4012500EB810447898D4028
:10478000E4683D43A469458123600023A26063601F
:10479000F0BC01F0ABBB0000F0B4012500EB8104DC
:1047A00007898D40E4683D436469058123600023E7
:1047B000A2606360F0BC01F021BC000070B5022370
:1047C00000250446242203702946C0F888500C3086
:1047D00040F8045CFCF7A0FC204684F8705001F01F
:1047E0005FFA63681B6823B129462046BDE8704024
:1047F000184770BD0378052B10B504460AD080F821
:104800008C300523037043681B680BB10421984763
:104810000023A36010BD00000178052906D190F89F
:104820008C20436802701B6803B118477047000072
:1048300070B590F87030044613B1002380F87030E2
:1048400004F18002204601F047FB63689B68B3B91E
:1048500094F8803013F0600535D00021204601F037
:1048600039FE0021204601F029FE63681B6813B160
:10487000062120469847062384F8703070BD2046F4
:1048800098470028E4D0B4F88630A26F9A4288BFD7
:10489000A36794F98030A56F002B4FF0300380F2AE
:1048A0000381002D00F0F280092284F8702083F348
:1048B000118800212046D4E91D23FFF76DFF002356
:1048C00083F31188DAE794F8812003F07F0343EA49
:1048D000022340F20232934200F0C58021D8B3F5A2
:1048E000807F48D00DD8012B3FD0022B00F0938061
:1048F000002BB2D104F1880262670222A267E3674B
:10490000C1E7B3F5817F00F09B80B3F5407FA4D170
:1049100094F88230012BA0D1B4F8883043F0020320
:1049200032E0B3F5006F4DD017D8B3F5A06F31D09A
:10493000A3F5C063012B90D86368204694F88220C9
:104940005E6894F88310B4F88430B047002884D0AF
:10495000436863670368A3671AE0B3F5106F36D046
:1049600040F6024293427FF478AF5C4B63670223C8
:10497000A3670023C3E794F88230012B7FF46DAF67
:10498000B4F8883023F00203A4F88830C4E91D5538
:10499000E56778E7B4F88030B3F5A06F0ED194F8EE
:1049A0008230204684F88A3001F0D8F963681B68A9
:1049B00013B1012120469847032323700023C4E943
:1049C0001D339CE704F18B0363670123C3E723785E
:1049D000042B10D1302383F311882046FFF7BAFE51
:1049E00085F311880321636884F88B5021701B685C
:1049F0000BB12046984794F88230002BDED084F823
:104A00008B300423237063681B68002BD6D00221EF
:104A100020469847D2E794F8843020461D0603F0DC
:104A20000F010AD501F04AFA012804D002287FF4C8
:104A300014AF2B4B9AE72B4B98E701F031FAF3E7D1
:104A400094F88230002B7FF408AF94F8843013F090
:104A50000F01B3D01A06204602D501F053FDADE791
:104A600001F044FDAAE794F88230002B7FF4F5AE04
:104A700094F8843013F00F01A0D01B06204602D515
:104A800001F028FD9AE701F019FD97E7142284F858
:104A9000702083F311882B462A4629462046FFF7CB
:104AA00069FE85F31188E9E65DB1152284F870206E
:104AB00083F3118800212046D4E91D23FFF75AFE15
:104AC000FDE60B2284F8702083F311882B462A46DA
:104AD00029462046FFF760FEE3E700BFBC7B0008E5
:104AE000B47B0008B87B000838B590F870300446F5
:104AF000002B3ED0063BDAB20F2A34D80F2B32D827
:104B0000DFE803F0373131082232313131313131D0
:104B100031313737856FB0F886309D4214D2C36883
:104B20001B8AB5FBF3F203FB12556DB9302383F3F7
:104B300011882B462A462946FFF72EFE85F3118859
:104B40000A2384F870300EE0142384F87030302388
:104B500083F31188002320461A461946FFF70AFE00
:104B6000002383F3118838BDC36F03B19847002336
:104B7000E7E70021204601F0ADFC0021204601F0CE
:104B80009DFC63681B6813B10621204698470623E5
:104B9000D7E7000010B590F870300446142B29D0E8
:104BA00017D8062B05D001D81BB110BD093B022B2D
:104BB000FBD80021204601F08DFC0021204601F0A9
:104BC0007DFC63681B6813B10621204698470623C5
:104BD00019E0152BE9D10B2380F87030302383F3D3
:104BE000118800231A461946FFF7D6FD002383F3E8
:104BF0001188DAE7C3689B695B68002BD5D1C36F66
:104C000003B19847002384F87030CEE70023826810
:104C1000037503691B6899689142FBD25A68036067
:104C20004260106058607047002382680375036912
:104C30001B6899689142FBD85A6803604260106013
:104C40005860704708B50846302383F311880A7D01
:104C50000023052A06D8DFE802F00B050503120E33
:104C6000826913604FF0FF338361FFF7CFFF0023AA
:104C700083F3118808BD8269936801339360D0E99A
:104C8000003213605A60EDE7FFF7C0BF054BD968EB
:104C900008751868026853601A600122D8600275AE
:104CA000FBF758BCA02500200C4B30B5DD684B1C31
:104CB00087B004460FD02B46094A684600F06EF9CB
:104CC0002046FFF7E3FF009B13B1684600F070F940
:104CD000A86907B030BDFFF7D9FFF9E7A02500208C
:104CE000454C000838B50C4D04468161EB6881687D
:104CF0009A68914203D8BDE83840FFF787BF18464D
:104D0000FFF792FF01230146EC6020462375BDE8C2
:104D10003840FBF71FBC00BFA0250020044B1A68D9
:104D2000DB6890689B68984294BF00200120704720
:104D3000A0250020084B10B51C68D8682268536075
:104D40001A600122DC602275FFF76EFF01462046E3
:104D5000BDE81040FBF7FEBBA025002038B50123BD
:104D6000084C00252370656001F0C0FD01F0E6FDF0
:104D70000549064801F078FE0223237085F3118867
:104D800038BD00BF08280020C47B0008A0250020F3
:104D900000F044B9034A516853685B1A9842FBD843
:104DA000704700BF001000E08B60022308610846D6
:104DB0008B8270478368A3F1840243F8142C026944
:104DC00043F8442C426943F8402C094A43F8242C08
:104DD000C268A3F1200043F8182C022203F80C2C1F
:104DE000002203F80B2C034A43F8102C704700BF35
:104DF0006D050008A025002008B5FFF7DBFFBDE822
:104E00000840FFF741BF0000024BDB6898610F20AC
:104E1000FFF73CBFA0250020302383F31188FFF764
:104E2000F3BF000008B50146302383F31188082042
:104E3000FFF73AFF002383F3118808BD064BDB68B8
:104E400039B1426818605A60136043600420FFF76C
:104E50002BBF4FF0FF307047A02500200368984219
:104E600006D01A680260506018469961FFF70CBFBF
:104E70007047000038B504460D462068844200D1D2
:104E800038BD036823605C608561FFF7FDFEF4E7D1
:104E9000036810B59C68A2420CD85C688A600B60FD
:104EA0004C602160596099688A1A9A604FF0FF330C
:104EB000836010BD121B1B68ECE700000A2938BF95
:104EC0000A2170B504460D460A26601901F008FD56
:104ED00001F0F0FC041BA54203D8751C04462E46C5
:104EE000F3E70A2E04D90120BDE8704001F0FCBDB3
:104EF00070BD0000F8B5144B0D460A2A4FF00A07A2
:104F0000D96103F11001826038BF0A22416019693A
:104F10001446016048601861A81801F0D1FC01F046
:104F2000C9FC431B0646A34206D37C1C281927460E
:104F3000354601F0D5FCF2E70A2F04D90120BDE87F
:104F4000F84001F0D1BDF8BDA0250020F8B5064617
:104F50000D4601F0AFFC0F4A134653F8107F9F42F5
:104F600006D12A4601463046BDE8F840FFF7C2BFE9
:104F7000D169BB68441A2C1928BF2C46A34202D918
:104F80002946FFF79BFF224631460348BDE8F8401B
:104F9000FFF77EBFA0250020B0250020C0E9032335
:104FA000002310B45DF8044B4361FFF7CFBF00004E
:104FB00010B5194C236998420DD08168D0E90032B0
:104FC00013605A609A680A449A60002303604FF0A5
:104FD000FF33A36110BD0268234643F8102F5360CE
:104FE0000022026022699A4203D1BDE8104001F01C
:104FF00071BC936881680B44936001F05BFC22698B
:10500000E1699268441AA242E4D91144BDE8104013
:10501000091AFFF753BF00BFA02500202DE9F04774
:10502000DFF8BC8008F110072C4ED8F8105001F0C2
:1050300041FCD8F81C40AA68031B9A423ED814448D
:105040004FF00009D5E90032C8F81C4013605A60DF
:10505000C5F80090D8F81030B34201D101F03AFC05
:1050600089F31188D5E9033128469847302383F323
:1050700011886B69002BD8D001F01CFC6A69A0EB89
:10508000040982464A450DD2022001F02DFD00227E
:10509000D8F81030B34208D151462846BDE8F04751
:1050A000FFF728BF121A2244F2E712EB090929463A
:1050B000384638BF4A46FFF7EBFEB5E7D8F8103060
:1050C000B34208D01444C8F81C00211AA960BDE8F6
:1050D000F047FFF7F3BEBDE8F08700BFB025002022
:1050E000A025002000207047FEE700007047000068
:1050F0004FF0FF307047000002290CD0032904D084
:105100000129074818BF00207047032A05D8054821
:1051100000EBC2007047044870470020704700BF92
:10512000B07C0008A0230020647C000870B59AB011
:1051300005460846144601A900F0C2F801A8FBF78D
:10514000E3FF431C0022C6B25B001046C5E90034F1
:1051500023700323023404F8013C01ABD1B20234C2
:105160008E4201D81AB070BD13F8011B013204F849
:10517000010C04F8021CF1E708B5302383F3118811
:105180000348FFF725FA002383F3118808BD00BF09
:105190001028002090F8803003F01F02012A07D168
:1051A00090F881200B2A03D10023C0E91D3315E0BC
:1051B00003F06003202B08D1B0F884302BB990F8AD
:1051C0008120212A03D81F2A04D8FFF7E3B9222A15
:1051D000EBD0FAE7034A426707228267C3670120E0
:1051E000704700BF9723002007B5052917D8DFE8CF
:1051F00001F0191603191920302383F31188104A7E
:1052000001210190FFF78CFA019802210D4AFFF766
:1052100087FA0D48FFF7A8F9002383F3118803B03C
:105220005DF804FB302383F311880748FFF772F918
:10523000F2E7302383F311880348FFF789F9EBE79E
:10524000047C0008287C00081028002038B50C4D8C
:105250000C4C2A460C4904F10800FFF767FF05F1E2
:10526000CA0204F110000949FFF760FF05F5CA7290
:1052700004F118000649BDE83840FFF757BF00BFEA
:10528000E8400020A0230020D07B0008E17B00083C
:10529000F97B000870B5044608460D46FBF734FF5D
:1052A000C6B22046013403780BB9184670BD3246A9
:1052B0002946FBF715FF0028F3D10120F6E700008F
:1052C0002DE9F04705460C46FBF71EFF2B49C6B2F9
:1052D0002846FFF7DFFF08B10736F6B2284928460F
:1052E000FFF7D8FF08B11036F6B2632E0BD8DFF8FF
:1052F0008C80DFF88C90234FDFF894A02E7846B98D
:105300002670BDE8F08729462046BDE8F04701F049
:10531000DFBF252E2ED1072241462846FBF7E0FEAF
:1053200070B9194B224603F10C0153F8040B8B4260
:1053300042F8040BF9D11B8807350E341380DDE7E2
:10534000082249462846FBF7CBFE98B9A21C0F4B12
:10535000197802320909C95D02F8041C13F8011B0F
:1053600001F00F015345C95D02F8031CF0D1183458
:105370000835C3E7013504F8016BBFE7D07C0008AE
:10538000F97B0008E77C0008D87C000800E8F11FE2
:105390000CE8F11FBFF34F8F044B1A695107FCD182
:1053A000D3F810215207F8D1704700BF00200052F7
:1053B00008B50D4B1B78ABB9FFF7ECFF0B4BDA6868
:1053C000D10704D50A4A5A6002F188325A60D3F8EC
:1053D0000C21D20706D5064AC3F8042102F188320F
:1053E000C3F8042108BD00BF46430020002000523E
:1053F0002301674508B5114B1B78F3B9104B1A69A7
:10540000510703D5DA6842F04002DA60D3F8102180
:10541000520705D5D3F80C2142F04002C3F80C2105
:10542000FFF7B8FF064BDA6842F00102DA60D3F802
:105430000C2142F00102C3F80C2108BD46430020B4
:10544000002000520F289ABF00F580604004002021
:10545000704700004FF40030704700001020704784
:105460000F2808B50BD8FFF7EDFF00F500330268F1
:10547000013204D104308342F9D1012008BD00205B
:10548000FCE700000F2838B505463FD8FFF782FF3C
:105490001F4CFFF78DFF4FF0FF3307286361C4F8FF
:1054A00014311DD82361FFF775FF030243F0240375
:1054B000E360E36843F08003E36023695A07FCD4A8
:1054C0002846FFF767FFFFF7BDFF4FF4003100F0FC
:1054D000CDF92846FFF78EFFBDE83840FFF7C0BF83
:1054E000C4F81031FFF756FFA0F108031B0243F088
:1054F0002403C4F80C31D4F80C3143F08003C4F811
:105500000C31D4F810315B07FBD4D9E7002038BD4B
:10551000002000522DE9F84F05460C46104645EA9A
:105520000203DE0602D00020BDE8F88F20F01F0045
:10553000DFF8BCB0DFF8BCA0FFF73AFF04EB0008CF
:10554000444503D10120FFF755FFEDE7202229460E
:10555000204601F08BFE10B920352034F0E72B46B1
:1055600005F120021F68791CDDD104339A42F9D17C
:1055700005F178431B481C4EB3F5801F1B4B38BF09
:10558000184603F1F80332BFD946D1461E46FFF74D
:1055900001FF0760A5EB040C336804F11C0143F024
:1055A00002033360231FD9F8007017F00507FAD102
:1055B00053F8042F8B424CF80320F4D1BFF34F8FE4
:1055C000FFF7E8FE4FF0FF33202221460360284614
:1055D000336823F00203336001F048FE0028BBD09B
:1055E0003846B0E7142100520C200052142000521B
:1055F000102000521021005210B5084C237828B119
:105600001BB9FFF7D5FE0123237010BD002BFCD082
:105610002070BDE81040FFF7EDBE00BF46430020FC
:105620002DE9F04F0D4685B0814658B111F00D06B9
:1056300014BF2022082211F00803019304D0431E56
:1056400003426AD0002435E0002E37D009F11F0153
:1056500021F01F094FF00108324F05F00403DFF875
:10566000D0A005EA080BBBF1000F32D07869C00763
:105670002FD408F101080C37B8F1060FF3D19EB909
:10568000294D4946A819019201F07AF904460028EB
:105690003AD11836019A782EF3D1494601F070F9C3
:1056A0000446002830D1019A4946204801F068F9A3
:1056B000044668BB204605B0BDE8F08F0029C9D17B
:1056C00001462846029201F05BF90446E0B9029ACD
:1056D000C0E713B178694107CBD5AC0702D578692B
:1056E0008007C6D5019911B178690107C1D5182085
:1056F000494600FB08A0CDE9022301F041F9044628
:10570000DDE902230028B4D04A460021204601E00A
:105710004A460021FBF700FDCCE70246002E95D15A
:1057200098E700BFF87C0008784300204843002039
:10573000604300200121FFF773BF0000F8B5144D4E
:1057400001241827134E40F2FF3200210120FBF7FD
:10575000E3FC07FB046001342A6955F80C1F01F0D3
:10576000FBF8062CF5D137254FF4C0542046FFF73F
:10577000E1FF014628B122460748BDE8F84001F0A4
:10578000EBB8C4EBC404013D4FEAD404EED1F8BD3C
:10579000F87C000860430020484300200244074B87
:1057A000D2B210B5904200D110BD441C00B253F8E3
:1057B000200041F8040BE0B2F4E700BF504000586D
:1057C0000E4B30B51C6F240405D41C6F1C671C6F76
:1057D00044F400441C670A4C02442368D2B243F4E8
:1057E00080732360074B904200D130BD441C51F8B8
:1057F000045B00B243F82050E0B2F4E700440258E2
:10580000004802585040005807B5012201A9002065
:10581000FFF7C4FF019803B05DF804FB13B504461D
:10582000FFF7F2FFA04205D0012201A90020019458
:10583000FFF7C6FF02B010BD10B56424013C4FF461
:105840007A70FFF7EFFA14F0FF04F7D1064B4FF42C
:10585000807214249A61013C4FF47A70FFF7E2FAE7
:1058600014F0FF04F7D110BD000802580144BFF343
:105870004F8F064B884204D3BFF34F8FBFF36F8F18
:105880007047C3F85C022030F4E700BF00ED00E091
:10589000034B1A681AB9034AD2F8D0241A60704729
:1058A000F04300200040025808B5FFF7F1FF024B1B
:1058B0001868C0F3806008BDF0430020EFF309834F
:1058C000054968334A6B22F001024A6383F3098871
:1058D000002383F31188704700EF00E0302080F34D
:1058E000118862B60D4B0E4AD96821F4E0610904B3
:1058F000090C0A430B49DA60D3F8FC2042F08072AD
:10590000C3F8FC20084AC2F8B01F116841F0010139
:1059100011602022DA7783F82200704700ED00E062
:105920000003FA0555CEACC5001000E0302310B5D9
:1059300083F311880E4B5B6813F4006314D0F1EE0F
:10594000103AEFF309844FF08073683CE361094B30
:10595000DB6B236684F30988FFF7E0F910B1064B8F
:10596000A36110BD054BFBE783F31188F9E700BF86
:1059700000ED00E000EF00E07F0500088205000870
:1059800070B5BFF34F8FBFF36F8F1A4A0021C2F873
:105990005012BFF34F8FBFF36F8F536943F400333F
:1059A0005361BFF34F8FBFF36F8FC2F88410BFF303
:1059B0004F8FD2F8803043F6E074C3F3C900C3F3CD
:1059C0004E335B0103EA0406014646EA817501395C
:1059D000C2F86052F9D2203B13F1200FF2D1BFF38D
:1059E0004F8F536943F480335361BFF34F8FBFF33D
:1059F0006F8F70BD00ED00E0FEE70000214B2248F4
:105A0000224A70B5904237D3214BC11EDA1C121ABC
:105A100022F003028B4238BF00220021FBF77CFBFF
:105A20001C4A0023C2F88430BFF34F8FD2F8803075
:105A300043F6E074C3F3C900C3F34E335B0103EADA
:105A40000406014646EA81750139C2F86C52F9D262
:105A5000203B13F1200FF2D1BFF34F8FBFF36F8FB5
:105A6000BFF34F8FBFF36F8F0023C2F85032BFF3E5
:105A70004F8FBFF36F8F70BD53F8041B40F8041BAA
:105A8000C0E700BF807F0008E4450020E445002017
:105A9000E445002000ED00E0074BD3F8D81021EAE0
:105AA0000001C3F8D810D3F8002122EA0002C3F89D
:105AB0000021D3F8003170470044025870B5D0E996
:105AC000244300224FF0FF359E6804EB421351013E
:105AD000D3F80009002805DAD3F8000940F0804027
